:020000040000FA
:1000000098020010690100007101000073010000F6
:100010007501000077010000790100000000000078
:100020000000000000000000000000007B01000054
:100030007D010000000000007F0100008101000040
:1000400083010000830100008301000083010000A0
:100050008301000083010000830100008301000090
:100060008301000083010000830100008301000080
:100070008301000083010000830100008301000070
:100080008301000083010000830100008301000060
:100090008301000083010000830100008301000050
:1000A0008301000083010000830100008301000040
:1000B0008301000083010000830100008301000030
:1000C00083010000830100008301000000F002F8BA
:1000D00000F03AF80AA090E8000C82448344AAF1A8
:1000E0000107DA4501D100F02FF8AFF2090EBAE8A6
:1000F0000F0013F0010F18BFFB1A43F0010318475C
:10010000E006000000070000103A24BF78C878C15C
:10011000FAD8520724BF30C830C144BF04680C600D
:10012000704700000023002400250026103A28BF55
:1001300078C1FBD8520728BF30C148BF0B60704759
:100140001FB51FBD10B510BD00F0A6F81146FFF792
:10015000F7FF00F05AF900F0C4F803B4FFF7F2FF1C
:1001600003BC00F037FB00000948804709480047FE
:10017000FEE7FEE7FEE7FEE7FEE7FEE7FEE7FEE757
:10018000FEE7FEE704480549034A054B70470000B7
:100190003D070000CD0000009800001098020010FC
:1001A0009800001053EA020C00F069802DE9F04B32
:1001B0004FF00006002B1FBFB3FA83F503FA05F4D6
:1001C00024FA05F65E4012BF1643B2FA82F502FA2F
:1001D00005F4C5F120051EBF22FA05FC44EA0C0413
:1001E000203556EA044C4FEA144418BF641C4FF003
:1001F00000084FF00009904271EB030C39D300293D
:1002000019BFB1FA81F701FA07F6B0FA80F700FAE0
:1002100007F6C7F120071EBF20FA07FC46EA0C06C6
:100220002037B6FBF4FCA7EB0507103F07F01F0BC8
:10023000CBF120060CFA0BFB2CFA06F644BFB346B2
:100240000026202FA4BF5E464FF0000B5BEA060C91
:1002500008BF4FF0010B19EB0B09ABFB027C48EB1D
:100260000608C01B06FB02CC0BFB03CC71EB0C0198
:10027000C1E70B46024641464846BDE8F08B13B540
:100280004FF000004FF00001AFF30080BDE81C40CC
:100290007047704770477047754600F029F8AE46C2
:1002A00005006946534620F00700854618B020B582
:1002B000FFF768FFBDE820404FF000064FF0000751
:1002C0004FF000084FF0000B21F00701AC46ACE8FE
:1002D000C009ACE8C009ACE8C009ACE8C0098D466B
:1002E00070470446AFF300802046FFF736FF00005A
:1002F000004870473800001070470000FFFFFFFF04
:100300009548006801280CD14FF47F60934908613B
:1003100093480068934908606FF4F0208F49486162
:1003200031E08D48006802280CD14FF47F608B4982
:1003300008618D4800688B4908606FF4E0208749A8
:10034000486120E08448006803280CD14FF47F60A6
:100350008249086185480068824908606FF4D020AE
:100360007E4948610FE07C48006804280BD14FF4B7
:100370007F607A4908617E4800687A4908606FF4B6
:10038000C020764948617748007800F00F00754931
:10039000086078480968405C77490860084600684A
:1003A000000108604FF4F0206C4908617248006851
:1003B000486100207149086004E070480068401CF2
:1003C0006E4908606D480068B0F5FA7FF5D34FF4C8
:1003D0007F606249C8617047002000BF00E0401C98
:1003E000B0F5FA7FFBDB66490968B1F5967F06D167
:1003F000FF21644A11700021614A116004E06049E4
:100400000968491C5E4A1160704700F097F900F0D6
:10041000C1F85D4800685D4908405B4908600846CE
:10042000406820F03F0048604C4800685849084345
:100430004A4908608FE0FFF7CFFF4FF4F0204749AB
:1004400008610846406910F4001F42D1FFF7C4FF5D
:1004500041480068401C404908600846006805287B
:1004600001D10020086047480078FF282ED10020E5
:10047000444908703A480068401E394908600846F7
:100480000068401C22D10920086037480068401EDF
:100490003549086008460068401C17D109200860EB
:1004A00032480068401E3149086008460068401C18
:1004B0000CD1092008602E480068401E2C490860B5
:1004C00008460068401C01D109200860FFF718FFAA
:1004D00041E0FFF781FF20480068401C1E4908608A
:1004E00008460068052801D10020086025480078EA
:1004F000FF282ED100202349087019480068401CAD
:1005000017490860084600680A2822D100200860C0
:1005100015480068401C14490860084600680A280D
:1005200017D10020086011480068401C0F4908607E
:10053000084600680A280CD1002008600C480068B2
:10054000401C0B490860084600680A2801D10020B9
:100550000860FFF7D5FE6EE71400001000C0092008
:100560000000001018000010040000100800001027
:100570000C0000101C000010280000102C000010BF
:10058000100000102700001000C00240FF00003FD4
:10059000F08F07002DE9F04781480068C0F3016043
:1005A00003287CD17F48006810F0030006D00128A2
:1005B00033D002285FD003282ED100E000BF784856
:1005C0000068C0F3074000F101044FF002017648D3
:1005D000D0F88800C0F30E0000F10100A1FB00017B
:1005E000724B4FF0000CA0FB037901FB039100FB61
:1005F0000C11224663463846FFF7D4FD05466C4889
:100600000068C0B200F1010422464FF00003284602
:10061000FFF7C8FD674908605DE061480068C0F306
:10062000074000F101044FF002015F48D0F8880054
:10063000C0F30E0000F10100A1FB00105E4A4FF074
:10064000000CA1FB027900FB029001FB0C01224689
:1006500063463846FFF7A6FD054655480068C0B218
:1006600000F1010422464FF000032846FFF79AFDEF
:10067000504908602FE04A480068C0F3074000F185
:1006800001044FF002014848D0F88800C0F30E0082
:1006900000F10100A1FB00124FF4004000E01BE05C
:1006A0004FF00003A1FB007902FB009001FB030166
:1006B00022463846FFF776FD05463D480068C0B241
:1006C00000F1010422464FF000032846FFF76AFDBF
:1006D0003849086000BF2FE03248006810F003007E
:1006E00006D0012810D0022819D0032823D100E019
:1006F00000BF2F480068C0B200F101002B49B1FBD8
:10070000F0F02C49086016E029480068C0B200F1FA
:1007100001002949B1FBF0F0264908600BE02448AC
:100720000068C0B200F101004FF40041B1FBF0F0ED
:100730002049086000BF00BFBDE8F08720201F49A6
:1007400008601948D0F8A00110F0200F05D000BFB4
:100750001A48006810F0400FFAD0032014490860CE
:1007600017481149C1F8A8011648174908604FF009
:1007700001000C4908604FF00400A1F10401086079
:1007800012481349086040F201100749C1F8C80136
:100790000846006820F4704040F4804008607047CC
:1007A00088C00F400CC10F4000C00F4000093D0041
:1007B00004C10F4034000010001BB700A0C10F405F
:1007C0005551515555545554ACC10F40DEF7EEEA22
:1007D000C4C00F4001491820ABBEFEE7260002004E
:1007E00000080000000000103800000008010000B0
:1007F00038080000380000106002000024010000EA
:1008000000000000000000000000000000000000E8
:100810000000000000000000000000003F065B4FE9
:10082000666D7D077F6F0000000000000000000083
:0808300000000000C0C62D000D
:04000005000001698D
:00000001FF
