:020000040000FA
:10000000A0020010690100007101000073010000EE
:100010007501000077010000790100000000000078
:100020000000000000000000000000007B01000054
:100030007D010000000000007F0100008101000040
:1000400083010000830100008301000083010000A0
:100050008301000083010000830100008301000090
:100060008301000083010000830100008301000080
:100070008301000083010000830100008301000070
:100080008301000083010000830100008301000060
:100090008301000083010000830100008301000050
:1000A0008301000083010000830100008301000040
:1000B0008301000083010000830100008301000030
:1000C00083010000830100008301000000F002F8BA
:1000D00000F03AF80AA090E8000C82448344AAF1A8
:1000E0000107DA4501D100F02FF8AFF2090EBAE8A6
:1000F0000F0013F0010F18BFFB1A43F0010318475C
:100100004C0600006C060000103A24BF78C878C185
:10011000FAD8520724BF30C830C144BF04680C600D
:10012000704700000023002400250026103A28BF55
:1001300078C1FBD8520728BF30C148BF0B60704759
:100140001FB51FBD10B510BD00F0A6F81146FFF792
:10015000F7FF00F075FA00F0C4F803B4FFF7F2FF00
:1001600003BC00F0EDFA0000094880470948004749
:10017000FEE7FEE7FEE7FEE7FEE7FEE7FEE7FEE757
:10018000FEE7FEE704480549034A054B70470000B7
:10019000A9040000CD000000A0000010A002001083
:1001A000A000001053EA020C00F069802DE9F04B2A
:1001B0004FF00006002B1FBFB3FA83F503FA05F4D6
:1001C00024FA05F65E4012BF1643B2FA82F502FA2F
:1001D00005F4C5F120051EBF22FA05FC44EA0C0413
:1001E000203556EA044C4FEA144418BF641C4FF003
:1001F00000084FF00009904271EB030C39D300293D
:1002000019BFB1FA81F701FA07F6B0FA80F700FAE0
:1002100007F6C7F120071EBF20FA07FC46EA0C06C6
:100220002037B6FBF4FCA7EB0507103F07F01F0BC8
:10023000CBF120060CFA0BFB2CFA06F644BFB346B2
:100240000026202FA4BF5E464FF0000B5BEA060C91
:1002500008BF4FF0010B19EB0B09ABFB027C48EB1D
:100260000608C01B06FB02CC0BFB03CC71EB0C0198
:10027000C1E70B46024641464846BDE8F08B13B540
:100280004FF000004FF00001AFF30080BDE81C40CC
:100290007047704770477047754600F029F8AE46C2
:1002A00005006946534620F00700854618B020B582
:1002B000FFF768FFBDE820404FF000064FF0000751
:1002C0004FF000084FF0000B21F00701AC46ACE8FE
:1002D000C009ACE8C009ACE8C009ACE8C0098D466B
:1002E00070470446AFF300802046FFF736FF00005A
:1002F000004870474000001070470000FFFFFFFFFC
:100300002DE9F04782480068C0F3016003287CD1E2
:100310008048006810F0030006D0012833D002287E
:100320005FD003282ED100E000BF79480068C0F3F9
:10033000074000F101044FF002017748D0F888002F
:10034000C0F30E0000F10100A1FB0001734B4FF060
:10035000000CA0FB037901FB039100FB0C1122466A
:1003600063463846FFF71EFF05466D480068C0B279
:1003700000F1010422464FF000032846FFF712FF68
:10038000684908605DE062480068C0F3074000F11A
:1003900001044FF002016048D0F88800C0F30E005D
:1003A00000F10100A1FB00105F4A4FF0000CA1FB1F
:1003B000027900FB029001FB0C012246634638469D
:1003C000FFF7F0FE054656480068C0B200F1010490
:1003D00022464FF000032846FFF7E4FE514908602B
:1003E0002FE04B480068C0F3074000F101044FF0D4
:1003F00002014948D0F88800C0F30E0000F1010066
:10040000A1FB00124FF4004000E01BE04FF000039E
:10041000A1FB007902FB009001FB03012246384654
:10042000FFF7C0FE05463E480068C0B200F1010477
:1004300022464FF000032846FFF7B4FE3949086012
:1004400000BF2FE03348006810F0030006D00128F9
:1004500010D0022819D0032823D100E000BF304873
:100460000068C0B200F101002C49B1FBF0F02D4949
:10047000086016E02A480068C0B200F101002A496D
:10048000B1FBF0F0274908600BE025480068C0B2D6
:1004900000F101004FF40041B1FBF0F02149086088
:1004A00000BF00BFBDE8F0872020204908601A483F
:1004B000D0F8A00110F0200F05D000BF1B48006845
:1004C00010F0400FFAD00320154908604FF01500D6
:1004D0001149C1F8A8011648164908604FF00100FB
:1004E0000C4908604FF00400A1F1040108601248B3
:1004F0001249086040F201100749C1F8C8010846D6
:10050000006820F4704040F48040086070470000AC
:1005100088C00F400CC10F4000C00F4000093D00D3
:1005200004C10F4000000010001BB700A0C10F4025
:1005300055545554ACC10F40DEF7EFEFC4C00F4027
:1005400000204FF04021086741F287308861022087
:10055000C8604860102048612020C86301204860BE
:1005600003E020204FF04021C8634FF04020C06BD3
:1005700008B9012000E000200028F2D1704700B542
:1005800062480068012808D1614800686149086034
:100590006FF0F0606049486325E05C48006802281D
:1005A00008D15E4800685B4908606FF0E0605A4916
:1005B000486318E055480068032808D15848006887
:1005C000544908606FF0D060534948630BE04F48CE
:1005D0000068042807D1534800684E4908606FF04E
:1005E000C0604D4948634B48007800F00F0049490E
:1005F00008604D480968405C4C490860084600683E
:1006000000010860084600684349486100204849E5
:10061000086004E046480068401C454908604448BA
:100620000068B0F5FA7FF5D3FFF78AFF4FF47F60DB
:100630003949C8613F480078401C3E49087000BDF8
:10064000FFF732FFFFF75CFE3B4800683B4908407C
:10065000394908600846C06820F47F10C8602E48F9
:10066000006840F47F602C4908600846006A40F04A
:10067000F060086200202B4908602949086027497A
:100680000860234908603FE020480068401C1F497B
:10069000086008460068052801D100200860254848
:1006A0000078AF282ED10020224908701848006831
:1006B000401C1749086008460068022822D1002023
:1006C000086016480068401C144908600846006825
:1006D000022817D10020086011480068401C10490A
:1006E00008600846006802280CD1002008600D4808
:1006F0000068401C0B49086008460068022801D1C8
:1007000000200860FFF73BFFBEE700001800001064
:10071000040000101C00001000C009200800001098
:100720000C00001010000010200000103400001019
:10073000380000103100001000C00240FF0000FF30
:1007400001491820ABBEFEE7260002006C0700003E
:10075000000000104000000008010000AC0700008D
:10076000400000106002000024010000C0C62D00FF
:100770000000000000000000000000000000000079
:100780000000000000000000000000003F065B4F7A
:10079000666D7D077F6F777C395E797100000000A0
:0C07A0000000000000000000000000004D
:04000005000001698D
:00000001FF
