:020000040000FA
:10000000A8020010690100007101000073010000E6
:100010007501000077010000790100000000000078
:100020000000000000000000000000007B01000054
:100030007D010000000000007F0100008101000040
:1000400083010000830100008301000083010000A0
:100050008301000083010000830100008301000090
:100060008301000083010000830100008301000080
:100070008301000083010000830100008301000070
:100080008301000083010000830100008301000060
:100090008301000083010000830100008301000050
:1000A0008301000083010000830100008301000040
:1000B0008301000083010000830100008301000030
:1000C00083010000830100008301000000F002F8BA
:1000D00000F03AF80AA090E8000C82448344AAF1A8
:1000E0000107DA4501D100F02FF8AFF2090EBAE8A6
:1000F0000F0013F0010F18BFFB1A43F0010318475C
:100100001C0700003C070000103A24BF78C878C1E3
:10011000FAD8520724BF30C830C144BF04680C600D
:10012000704700000023002400250026103A28BF55
:1001300078C1FBD8520728BF30C148BF0B60704759
:100140001FB51FBD10B510BD00F0A6F81146FFF792
:10015000F7FF00F075FA00F0C4F803B4FFF7F2FF00
:1001600003BC00F055FB00000948804709480047E0
:10017000FEE7FEE7FEE7FEE7FEE7FEE7FEE7FEE757
:10018000FEE7FEE704480549034A054B70470000B7
:10019000A9040000CD000000A8000010A802001073
:1001A000A800001053EA020C00F069802DE9F04B22
:1001B0004FF00006002B1FBFB3FA83F503FA05F4D6
:1001C00024FA05F65E4012BF1643B2FA82F502FA2F
:1001D00005F4C5F120051EBF22FA05FC44EA0C0413
:1001E000203556EA044C4FEA144418BF641C4FF003
:1001F00000084FF00009904271EB030C39D300293D
:1002000019BFB1FA81F701FA07F6B0FA80F700FAE0
:1002100007F6C7F120071EBF20FA07FC46EA0C06C6
:100220002037B6FBF4FCA7EB0507103F07F01F0BC8
:10023000CBF120060CFA0BFB2CFA06F644BFB346B2
:100240000026202FA4BF5E464FF0000B5BEA060C91
:1002500008BF4FF0010B19EB0B09ABFB027C48EB1D
:100260000608C01B06FB02CC0BFB03CC71EB0C0198
:10027000C1E70B46024641464846BDE8F08B13B540
:100280004FF000004FF00001AFF30080BDE81C40CC
:100290007047704770477047754600F029F8AE46C2
:1002A00005006946534620F00700854618B020B582
:1002B000FFF768FFBDE820404FF000064FF0000751
:1002C0004FF000084FF0000B21F00701AC46ACE8FE
:1002D000C009ACE8C009ACE8C009ACE8C0098D466B
:1002E00070470446AFF300802046FFF736FF00005A
:1002F000004870474400001070470000FFFFFFFFF8
:100300002DE9F04782480068C0F3016003287CD1E2
:100310008048006810F0030006D0012833D002287E
:100320005FD003282ED100E000BF79480068C0F3F9
:10033000074000F101044FF002017748D0F888002F
:10034000C0F30E0000F10100A1FB0001734B4FF060
:10035000000CA0FB037901FB039100FB0C1122466A
:1003600063463846FFF71EFF05466D480068C0B279
:1003700000F1010422464FF000032846FFF712FF68
:10038000684908605DE062480068C0F3074000F11A
:1003900001044FF002016048D0F88800C0F30E005D
:1003A00000F10100A1FB00105F4A4FF0000CA1FB1F
:1003B000027900FB029001FB0C012246634638469D
:1003C000FFF7F0FE054656480068C0B200F1010490
:1003D00022464FF000032846FFF7E4FE514908602B
:1003E0002FE04B480068C0F3074000F101044FF0D4
:1003F00002014948D0F88800C0F30E0000F1010066
:10040000A1FB00124FF4004000E01BE04FF000039E
:10041000A1FB007902FB009001FB03012246384654
:10042000FFF7C0FE05463E480068C0B200F1010477
:1004300022464FF000032846FFF7B4FE3949086012
:1004400000BF2FE03348006810F0030006D00128F9
:1004500010D0022819D0032823D100E000BF304873
:100460000068C0B200F101002C49B1FBF0F02D4949
:10047000086016E02A480068C0B200F101002A496D
:10048000B1FBF0F0274908600BE025480068C0B2D6
:1004900000F101004FF40041B1FBF0F02149086088
:1004A00000BF00BFBDE8F0872020204908601A483F
:1004B000D0F8A00110F0200F05D000BF1B48006845
:1004C00010F0400FFAD00320154908604FF01500D6
:1004D0001149C1F8A8011648164908604FF00100FB
:1004E0000C4908604FF00400A1F1040108601248B3
:1004F0001249086040F201100749C1F8C8010846D6
:10050000006820F4704040F48040086070470000AC
:1005100088C00F400CC10F4000C00F4000093D00D3
:1005200004C10F4000000010001BB700A0C10F4025
:1005300055545554ACC10F40DEF7EFEFC4C00F4027
:1005400000204FF04021086741F287308861022087
:10055000C8604860102048612020C86301204860BE
:1005600003E020204FF04021C8634FF04020C06BD3
:1005700008B9012000E000200028F2D1704700B542
:1005800095480068012808D194480068944908609B
:100590006FF0F0609349486325E08F4800680228B7
:1005A00008D1914800688E4908606FF0E0608D497D
:1005B000486318E088480068032808D18B48006821
:1005C000874908606FF0D060864948630BE0824835
:1005D0000068042807D186480068814908606FF0E8
:1005E000C060804948637E48007800F00F007C4975
:1005F000086080480968405C7F49086008460068D8
:1006000000010860084600687649486100207B497F
:10061000086004E079480068401C78490860774821
:100620000068B0F57A7FF5D3FFF78AFF4FF47F605B
:100630006C49C86172480078401C7149087000BD5F
:10064000FFF732FFFFF75CFE6E4800686E49084016
:100650006C4908600846C06820F47F10C860614893
:10066000006840F47F605F4908600846006A40F017
:10067000F06008626548006848B100205C49086085
:100680005A490860584908605449086008E0012048
:100690005749086055490860534908604F49086048
:1006A00099E04D480068401C4B49086008460068C6
:1006B000052801D1002008605448006898B35048CC
:1006C0000078AF2863D100204D4908704348006886
:1006D000401C4249086008460068022857D10020A3
:1006E000086041480068401C3F49086008460068AF
:1006F00002284CD1002008603C480068401C3B495F
:10070000086008460068022841D100200860384887
:100710000068401C3649086008460068022836D147
:100720000020086033E0FFE735480078AF282ED17D
:1007300000203349087029480068401E2749086096
:1007400008460068401C22D1012008602648006845
:10075000401E2549086008460068401C17D101204A
:10076000086022480068401E20490860084600686A
:10077000401C0CD1012008601D480068401E1C4927
:10078000086008460068401C01D101200860134839
:10079000006801280ED11448006801280AD11348C6
:1007A0000068012806D112480068012802D1002003
:1007B000164908600948006858B90B48006840B9F4
:1007C0000A48006828B90A48006810B901200F4992
:1007D0000860FFF7D4FE64E7180000100400001062
:1007E0001C00001000C00920080000100C000010C0
:1007F000100000102000001034000010380000101D
:100800003100001000C00240FF0000FF4000001057
:1008100001491820ABBEFEE7260002003C0800009C
:1008200000000010440000000801000080080000E3
:10083000440000106402000024010000C0C62D0026
:1008400000000000000000000000000000000000A8
:100850000000000000000000000000003F065B4FA9
:10086000666D7D077F6F777C395E797100000000CF
:100870000000000000000000000000000100000077
:04000005000001698D
:00000001FF
