:020000040000FA
:1000000050030010A1010000A9010000AB01000095
:10001000AD010000AF010000B101000000000000D0
:10002000000000000000000000000000B30100001C
:10003000B501000000000000B7010000B901000098
:10004000BB010000BB010000BB010000BB010000C0
:10005000BB010000BB010000BB010000BB010000B0
:10006000BB010000BB010000BB010000BB010000A0
:10007000BB010000BB010000BB010000BB01000090
:10008000BB010000BB010000BB010000BB01000080
:10009000BB010000BB010000BB010000BB01000070
:1000A000BB010000BB010000BB010000BB01000060
:1000B000BB010000BB010000BB010000BB01000050
:1000C000BB010000BB010000BB01000000F002F812
:1000D00000F03CF80AA090E8000C82448344AAF1A6
:1000E0000107DA4501D100F031F8AFF2090EBAE8A4
:1000F0000F0013F0010F18BFFB1A43F0010318475C
:10010000B0070000D0070000103A24BF78C878C1BB
:10011000FAD8520724BF30C830C144BF04680C600D
:10012000704700000023002400250026103A28BF55
:1001300078C1FBD8520728BF30C148BF0B60704759
:100140001FB500F086FB1FBD10B510BD00F08AFB87
:100150001146FFF7F5FF00F0EFFA00F0B9F803B42D
:10016000FFF7F2FF03BC00F0BDF800000B49D1F827
:1001700000C04A685CF8043B1068184442F8040B5D
:100180008C4528BFA1F1DC0C8A4228BFA1F1DC021A
:10019000C1F800C04A6020F000407047E80000103D
:1001A0000948804709480047FEE7FEE7FEE7FEE70B
:1001B000FEE7FEE7FEE7FEE7FEE7FEE70448054947
:1001C000034A054B70470000A9040000CD00000061
:1001D00050010010500300105001001053EA020CAF
:1001E00000F069802DE9F04B4FF00006002B1FBF97
:1001F000B3FA83F503FA05F424FA05F65E4012BF5C
:100200001643B2FA82F502FA05F4C5F120051EBFC5
:1002100022FA05FC44EA0C04203556EA044C4FEA65
:10022000144418BF641C4FF000084FF000099042BE
:1002300071EB030C39D3002919BFB1FA81F701FA28
:1002400007F6B0FA80F700FA07F6C7F120071EBFDD
:1002500020FA07FC46EA0C062037B6FBF4FCA7EBB5
:100260000507103F07F01F0BCBF120060CFA0BFB24
:100270002CFA06F644BFB3460026202FA4BF5E46E4
:100280004FF0000B5BEA060C08BF4FF0010B19EBB7
:100290000B09ABFB027C48EB0608C01B06FB02CC3B
:1002A0000BFB03CC71EB0C01C1E70B460246414648
:1002B0004846BDE8F08B13B54FF000004FF0000149
:1002C000AFF30080BDE81C4070477047704770472F
:1002D0000446AFF300802046FFF741FF0048704717
:1002E000F000001001491820ABBEFEE72600020016
:1002F000704700000000000000000000FFFFFFFF4B
:100300002DE9F04781480068C0F3016003287CD1E3
:100310007F48006810F0030006D0012833D002287F
:100320005FD003282ED100E000BF78480068C0F3FA
:10033000074000F101044FF002017648D0F8880030
:10034000C0F30E0000F10100A1FB0001724B4FF061
:10035000000CA0FB037901FB039100FB0C1122466A
:1003600063463846FFF73AFF05466C480068C0B25E
:1003700000F1010422464FF000032846FFF72EFF4C
:10038000674908605DE061480068C0F3074000F11C
:1003900001044FF002015F48D0F88800C0F30E005E
:1003A00000F10100A1FB00105E4A4FF0000CA1FB20
:1003B000027900FB029001FB0C012246634638469D
:1003C000FFF70CFF054655480068C0B200F1010474
:1003D00022464FF000032846FFF700FF504908600F
:1003E0002FE04A480068C0F3074000F101044FF0D5
:1003F00002014848D0F88800C0F30E0000F1010067
:10040000A1FB00124FF4004000E01BE04FF000039E
:10041000A1FB007902FB009001FB03012246384654
:10042000FFF7DCFE05463D480068C0B200F101045C
:1004300022464FF000032846FFF7D0FE38490860F7
:1004400000BF2FE03248006810F0030006D00128FA
:1004500010D0022819D0032823D100E000BF2F4874
:100460000068C0B200F101002B49B1FBF0F02C494B
:10047000086016E029480068C0B200F1010029496F
:10048000B1FBF0F0264908600BE024480068C0B2D8
:1004900000F101004FF40041B1FBF0F02049086089
:1004A00000BF00BFBDE8F08720201F490860194841
:1004B000D0F8A00110F0200F05D000BF1A48006846
:1004C00010F0400FFAD00320144908601748114972
:1004D000C1F8A8011648174908604FF001000C49FF
:1004E00008604FF00400A1F10401086012481349AC
:1004F000086040F201100749C1F8C80108460068C9
:1005000020F4704040F480400860704788C00F407D
:100510000CC10F4000C00F4000093D0004C10F4056
:1005200000000010001BB700A0C10F4055515155ED
:1005300055545554ACC10F40DEF7EEEAC4C00F402D
:10054000002100E0491C8142FCD370474FF0F0606D
:10055000A949C8614FF00060C8614000C861704798
:1005600000B5FFF7F3FFA5480068A34948614FF0C5
:100570000060C861400088611920FFF7E1FF4FF07B
:1005800080509D49C86100BD00B59D48007800F0CD
:10059000F0009A49086008460088C0040860FFF728
:1005A000DFFF9748007800F00F0094490860084684
:1005B0000088C0050860FFF7D3FF4FF47A70FFF79B
:1005C000BFFF00BD00B5FFF7C1FF8C4800688A4936
:1005D00048614FF000608861400088611920FFF792
:1005E000AFFF4FF080508449C86100BD00B584481A
:1005F000007800F0F0008149086008460088C004D7
:100600000860FFF7DFFF7E48007800F00F007B49AD
:10061000086008460088C0050860FFF7D3FF4FF464
:100620007A70FFF78DFF00BD10B5044600230CE083
:10063000E05C73490860FFF7D9FF5B1C102B04D105
:10064000C0206F490860FFF79FFFE05C0028EFD1F2
:1006500010BD00B56B48C0686B4908406949C86067
:100660006548006840F0F06063490860084600682B
:1006700040F0006008600846006840F08050086064
:10068000FFF764FF4FF44860FFF75AFF4FF0C07068
:100690005A490860FFF764FF47F23050FFF750FFF8
:1006A0004FF0C07055490860FFF75AFF47F23050CD
:1006B000FFF746FF4FF0C07050490860FFF750FF4A
:1006C00047F23050FFF73CFF4FF080704B49086015
:1006D000FFF746FF47F23050FFF732FF2820484926
:1006E0000860FFF751FF47F23050FFF729FF0C2059
:1006F00043490860FFF748FF4FF44870FFF720FFB9
:1007000006203F490860FFF73FFF4FF44870FFF7AE
:1007100017FF01203A490860FFF736FF42F21070D8
:10072000FFF70EFF802036490860FFF72DFF4FF4DA
:100730004870FFF705FF00BD88B034A207CA04ABBC
:1007400007C335A1D1E90023D1E90201CDE9002396
:10075000CDE90201FFF7A8FEFFF7D2FDFFF779FF11
:100760000020284908612449086439E02248406D86
:1007700010F4805F34D1FFF7F9FC062190FBF1F211
:1007800001FB1204641C012C02D131208DF81C00E5
:10079000022C02D132208DF81C00032C02D1332010
:1007A0008DF81C00042C02D134208DF81C00052C7F
:1007B00002D135208DF81C00062C02D136208DF890
:1007C0001C0000208DF81D0080200D490860FFF7F7
:1007D000DBFE4FF44870FFF7B3FE07A8FFF724FFD6
:1007E000C4E700B5012006490860FFF7CDFE42F2DC
:1007F0001070FFF7A5FE00BD00C009200800001022
:100800000400001000C00240FF3F00FC4D4954208E
:100810004469616D6F6E64004A7562696C6565203C
:1008200059656172000000000B4910B5A1F17C020E
:100830000A4CC2E93712372106E000EB104342F8B8
:100840002130074B00FB03400B1EA1F10101F4DC3A
:1008500010BD0120E8E7000088000010E119D6660D
:10086000CD0D01007546FFF739FDAE46050069461E
:10087000534620F00700854618B020B5FFF79EFCD0
:10088000BDE820404FF000064FF000074FF0000891
:100890004FF0000B21F00701AC46ACE8C009ACE812
:1008A000C009ACE8C009ACE8C0098D46704700003B
:1008B000D0080000000000100C000000080100003B
:1008C000DC0800000C0000104403000024010000BC
:0C08D000C0C62D00000000000000000069
:04000005000001A155
:00000001FF
