:020000040000FA
:10000000700200106901000071010000730100001E
:100010007501000077010000790100000000000078
:100020000000000000000000000000007B01000054
:100030007D010000000000007F0100008101000040
:1000400083010000830100008301000083010000A0
:100050008301000083010000830100008301000090
:100060008301000083010000830100008301000080
:100070008301000083010000830100008301000070
:100080008301000083010000830100008301000060
:100090008301000083010000830100008301000050
:1000A0008301000083010000830100008301000040
:1000B0008301000083010000830100008301000030
:1000C00083010000830100008301000000F002F8BA
:1000D00000F03AF80AA090E8000C82448344AAF1A8
:1000E0000107DA4501D100F02FF8AFF2090EBAE8A6
:1000F0000F0013F0010F18BFFB1A43F0010318475C
:10010000E406000004070000103A24BF78C878C154
:10011000FAD8520724BF30C830C144BF04680C600D
:10012000704700000023002400250026103A28BF55
:1001300078C1FBD8520728BF30C148BF0B60704759
:100140001FB51FBD10B510BD00F0A6F81146FFF792
:10015000F7FF00F0F1FA00F0C4F803B4FFF7F2FF84
:1001600003BC00F039FB00000948804709480047FC
:10017000FEE7FEE7FEE7FEE7FEE7FEE7FEE7FEE757
:10018000FEE7FEE704480549034A054B70470000B7
:10019000A9040000CD0000007000001070020010E3
:1001A0007000001053EA020C00F069802DE9F04B5A
:1001B0004FF00006002B1FBFB3FA83F503FA05F4D6
:1001C00024FA05F65E4012BF1643B2FA82F502FA2F
:1001D00005F4C5F120051EBF22FA05FC44EA0C0413
:1001E000203556EA044C4FEA144418BF641C4FF003
:1001F00000084FF00009904271EB030C39D300293D
:1002000019BFB1FA81F701FA07F6B0FA80F700FAE0
:1002100007F6C7F120071EBF20FA07FC46EA0C06C6
:100220002037B6FBF4FCA7EB0507103F07F01F0BC8
:10023000CBF120060CFA0BFB2CFA06F644BFB346B2
:100240000026202FA4BF5E464FF0000B5BEA060C91
:1002500008BF4FF0010B19EB0B09ABFB027C48EB1D
:100260000608C01B06FB02CC0BFB03CC71EB0C0198
:10027000C1E70B46024641464846BDE8F08B13B540
:100280004FF000004FF00001AFF30080BDE81C40CC
:100290007047704770477047754600F029F8AE46C2
:1002A00005006946534620F00700854618B020B582
:1002B000FFF768FFBDE820404FF000064FF0000751
:1002C0004FF000084FF0000B21F00701AC46ACE8FE
:1002D000C009ACE8C009ACE8C009ACE8C0098D466B
:1002E00070470446AFF300802046FFF736FF00005A
:1002F000004870470C00001070470000FFFFFFFF30
:100300002DE9F04781480068C0F3016003287CD1E3
:100310007F48006810F0030006D0012833D002287F
:100320005FD003282ED100E000BF78480068C0F3FA
:10033000074000F101044FF002017648D0F8880030
:10034000C0F30E0000F10100A1FB0001724B4FF061
:10035000000CA0FB037901FB039100FB0C1122466A
:1003600063463846FFF71EFF05466C480068C0B27A
:1003700000F1010422464FF000032846FFF712FF68
:10038000674908605DE061480068C0F3074000F11C
:1003900001044FF002015F48D0F88800C0F30E005E
:1003A00000F10100A1FB00105E4A4FF0000CA1FB20
:1003B000027900FB029001FB0C012246634638469D
:1003C000FFF7F0FE054655480068C0B200F1010491
:1003D00022464FF000032846FFF7E4FE504908602C
:1003E0002FE04A480068C0F3074000F101044FF0D5
:1003F00002014848D0F88800C0F30E0000F1010067
:10040000A1FB00124FF4004000E01BE04FF000039E
:10041000A1FB007902FB009001FB03012246384654
:10042000FFF7C0FE05463D480068C0B200F1010478
:1004300022464FF000032846FFF7B4FE3849086013
:1004400000BF2FE03248006810F0030006D00128FA
:1004500010D0022819D0032823D100E000BF2F4874
:100460000068C0B200F101002B49B1FBF0F02C494B
:10047000086016E029480068C0B200F1010029496F
:10048000B1FBF0F0264908600BE024480068C0B2D8
:1004900000F101004FF40041B1FBF0F02049086089
:1004A00000BF00BFBDE8F08720201F490860194841
:1004B000D0F8A00110F0200F05D000BF1A48006846
:1004C00010F0400FFAD00320144908601748114972
:1004D000C1F8A8011648174908604FF001000C49FF
:1004E00008604FF00400A1F10401086012481349AC
:1004F000086040F201100749C1F8C80108460068C9
:1005000020F4704040F480400860704788C00F407D
:100510000CC10F4000C00F4000093D0004C10F4056
:1005200000000010001BB700A0C10F4055515155ED
:1005300055545554ACC10F40DEF7EEEAC4C00F402D
:10054000002100E0491C8142FCD370474FF0F0606D
:100550009549C8614FF00060C8614000C8617047AC
:1005600000B5FFF7F3FF914800688F4948614FF0ED
:100570000060C861400088611920FFF7E1FF4FF07B
:1005800080508949C86100BD00B58948007800F0F5
:10059000F0008649086008460088C0040860FFF73C
:1005A000DFFF8348007800F00F00804908600846AC
:1005B0000088C0050860FFF7D3FF4FF47A70FFF79B
:1005C000BFFF00BD00B5FFF7C1FF7848006876495E
:1005D00048614FF000608861400088611920FFF792
:1005E000AFFF4FF080507049C86100BD00B5704842
:1005F000007800F0F0006D49086008460088C004EB
:100600000860FFF7DFFF6A48007800F00F006749D5
:10061000086008460088C0050860FFF7D3FF4FF464
:100620007A70FFF78DFF00BD10B5044600230CE083
:10063000E05C5F490860FFF7D9FF5B1C102B04D119
:10064000C0205B490860FFF79FFFE05C0028EFD106
:1006500010BD00B5574840685749084055494860A3
:100660005148006840F0F0604F4908600846006853
:1006700040F0006008600846006840F08050086064
:10068000FFF764FF4FF44860FFF75AFF4FF0C07068
:1006900046490860FFF764FF47F23050FFF750FF0C
:1006A0004FF0C07041490860FFF75AFF47F23050E1
:1006B000FFF746FF4FF0C0703C490860FFF750FF5E
:1006C00047F23050FFF73CFF4FF080703749086029
:1006D000FFF746FF47F23050FFF732FF282034493A
:1006E0000860FFF751FF47F23050FFF729FF0C2059
:1006F0002F490860FFF748FF4FF44870FFF720FFCD
:1007000006202B490860FFF73FFF4FF44870FFF7C2
:1007100017FF012026490860FFF736FF42F21070EC
:10072000FFF70EFF802022490860FFF72DFF4FF4EE
:100730004870FFF705FF00BD00B587B01FA30FCBC2
:10074000CDE90523CDE9030120A207CA8DE8070002
:10075000FFF7AAFEFFF7D4FDFFF77BFF80201449C7
:100760000860FFF711FF4FF44870FFF7E9FE03A898
:10077000FFF75AFFC0200E490860FFF705FF4FF44E
:100780004870FFF7DDFE6846FFF74EFF002007B018
:1007900000BD00B5012006490860FFF7F5FE42F2F2
:1007A0001070FFF7CDFE00BD00C00920080000104A
:1007B0000400001000C00240FF3F00FC486172735B
:1007C00068204B726974696B610000005368726540
:1007D00079616E736800000001491820ABBEFEE726
:1007E0002600020004080000000000100C000000B9
:1007F00008010000100800000C0000106402000056
:1008000024010000C0C62D00000000000000000010
:04000005000001698D
:00000001FF
